{"src/web3/contracts/SharedNFTLogic.sol":{"SharedNFTLogic":{"abi":[{"inputs":[{"internalType":"bytes","name":"unencoded","type":"bytes"}],"name":"base64Encode","outputs":[{"internalType":"string","name":"","type":"string"}],"stateMutability":"pure","type":"function"},{"inputs":[{"internalType":"string","name":"name","type":"string"},{"internalType":"string","name":"description","type":"string"},{"internalType":"string","name":"imageUrl","type":"string"},{"internalType":"string","name":"animationUrl","type":"string"},{"internalType":"uint256","name":"tokenOfEdition","type":"uint256"},{"internalType":"uint256","name":"editionSize","type":"uint256"}],"name":"createMetadataEdition","outputs":[{"internalType":"string","name":"","type":"string"}],"stateMutability":"pure","type":"function"},{"inputs":[{"internalType":"string","name":"name","type":"string"},{"internalType":"string","name":"description","type":"string"},{"internalType":"string","name":"mediaData","type":"string"},{"internalType":"uint256","name":"tokenOfEdition","type":"uint256"},{"internalType":"uint256","name":"editionSize","type":"uint256"}],"name":"createMetadataJSON","outputs":[{"internalType":"bytes","name":"","type":"bytes"}],"stateMutability":"pure","type":"function"},{"inputs":[{"internalType":"bytes","name":"json","type":"bytes"}],"name":"encodeMetadataJSON","outputs":[{"internalType":"string","name":"","type":"string"}],"stateMutability":"pure","type":"function"},{"inputs":[{"internalType":"uint256","name":"value","type":"uint256"}],"name":"numberToString","outputs":[{"internalType":"string","name":"","type":"string"}],"stateMutability":"pure","type":"function"},{"inputs":[{"internalType":"string","name":"imageUrl","type":"string"},{"internalType":"string","name":"animationUrl","type":"string"},{"internalType":"uint256","name":"tokenOfEdition","type":"uint256"}],"name":"tokenMediaData","outputs":[{"internalType":"string","name":"","type":"string"}],"stateMutability":"pure","type":"function"}],"evm":{"bytecode":{"linkReferences":{},"object":"608060405234801561001057600080fd5b50611561806100206000396000f3fe608060405234801561001057600080fd5b50600436106100625760003560e01c8063170dc6601461006757806358464f3014610097578063d01fde8c146100c7578063d5fb1b19146100f7578063df30dba014610127578063eb111ab614610157575b600080fd5b610081600480360381019061007c91906109f1565b610187565b60405161008e9190610edb565b60405180910390f35b6100b160048036038101906100ac9190610897565b610199565b6040516100be9190610eb9565b60405180910390f35b6100e160048036038101906100dc9190610751565b610218565b6040516100ee9190610edb565b60405180910390f35b610111600480360381019061010c9190610751565b610249565b60405161011e9190610edb565b60405180910390f35b610141600480360381019061013c919061079a565b61025b565b60405161014e9190610edb565b60405180910390f35b610171600480360381019061016c9190610966565b610294565b60405161017e9190610edb565b60405180910390f35b606061019282610382565b9050919050565b60608060008311156101d0576101ae83610187565b6040516020016101be9190610e52565b60405160208183030381529060405290505b866101da85610187565b8288886101e689610187565b8c6040516020016101fd9796959493929190610d73565b60405160208183030381529060405291505095945050505050565b606061022382610249565b6040516020016102339190610e30565b6040516020818303038152906040529050919050565b6060610254826104e3565b9050919050565b6060600061026a868686610294565b9050600061027b8989848888610199565b905061028681610218565b925050509695505050505050565b6060600080855111905060008085511190508180156102b05750805b156102f457856102bf85610187565b866102c987610187565b6040516020016102dc9493929190610cfe565b6040516020818303038152906040529250505061037b565b811561032d578561030485610187565b604051602001610315929190610cb9565b6040516020818303038152906040529250505061037b565b8015610366578461033d85610187565b60405160200161034e929190610e74565b6040516020818303038152906040529250505061037b565b60405180602001604052806000815250925050505b9392505050565b606060008214156103ca576040518060400160405280600181526020017f300000000000000000000000000000000000000000000000000000000000000081525090506104de565b600082905060005b600082146103fc5780806103e590611164565b915050600a826103f59190611028565b91506103d2565b60008167ffffffffffffffff8111156104185761041761126b565b5b6040519080825280601f01601f19166020018201604052801561044a5781602001600182028036833780820191505090505b5090505b600085146104d75760018261046391906110b3565b9150600a8561047291906111ad565b603061047e9190610fd2565b60f81b8183815181106104945761049361123c565b5b60200101907effffffffffffffffffffffffffffffffffffffffffffffffffffffffffffff1916908160001a905350600a856104d09190611028565b945061044e565b8093505050505b919050565b606060008251141561050657604051806020016040528060008152509050610657565b60006040518060600160405280604081526020016114ec60409139905060006003600285516105359190610fd2565b61053f9190611028565b600461054b9190611059565b9050600060208261055c9190610fd2565b67ffffffffffffffff8111156105755761057461126b565b5b6040519080825280601f01601f1916602001820160405280156105a75781602001600182028036833780820191505090505b509050818152600183018586518101602084015b81831015610616576003830192508251603f8160121c168501518253600182019150603f81600c1c168501518253600182019150603f8160061c168501518253600182019150603f81168501518253600182019150506105bb565b60038951066001811461063057600281146106405761064b565b613d3d60f01b600283035261064b565b603d60f81b60018303525b50505050508093505050505b919050565b600061066f61066a84610f22565b610efd565b90508281526020810184848401111561068b5761068a61129f565b5b6106968482856110f1565b509392505050565b60006106b16106ac84610f53565b610efd565b9050828152602081018484840111156106cd576106cc61129f565b5b6106d88482856110f1565b509392505050565b600082601f8301126106f5576106f461129a565b5b813561070584826020860161065c565b91505092915050565b600082601f8301126107235761072261129a565b5b813561073384826020860161069e565b91505092915050565b60008135905061074b816114d4565b92915050565b600060208284031215610767576107666112a9565b5b600082013567ffffffffffffffff811115610785576107846112a4565b5b610791848285016106e0565b91505092915050565b60008060008060008060c087890312156107b7576107b66112a9565b5b600087013567ffffffffffffffff8111156107d5576107d46112a4565b5b6107e189828a0161070e565b965050602087013567ffffffffffffffff811115610802576108016112a4565b5b61080e89828a0161070e565b955050604087013567ffffffffffffffff81111561082f5761082e6112a4565b5b61083b89828a0161070e565b945050606087013567ffffffffffffffff81111561085c5761085b6112a4565b5b61086889828a0161070e565b935050608061087989828a0161073c565b92505060a061088a89828a0161073c565b9150509295509295509295565b600080600080600060a086880312156108b3576108b26112a9565b5b600086013567ffffffffffffffff8111156108d1576108d06112a4565b5b6108dd8882890161070e565b955050602086013567ffffffffffffffff8111156108fe576108fd6112a4565b5b61090a8882890161070e565b945050604086013567ffffffffffffffff81111561092b5761092a6112a4565b5b6109378882890161070e565b93505060606109488882890161073c565b92505060806109598882890161073c565b9150509295509295909350565b60008060006060848603121561097f5761097e6112a9565b5b600084013567ffffffffffffffff81111561099d5761099c6112a4565b5b6109a98682870161070e565b935050602084013567ffffffffffffffff8111156109ca576109c96112a4565b5b6109d68682870161070e565b92505060406109e78682870161073c565b9150509250925092565b600060208284031215610a0757610a066112a9565b5b6000610a158482850161073c565b91505092915050565b6000610a2982610f84565b610a338185610f9a565b9350610a43818560208601611100565b610a4c816112ae565b840191505092915050565b6000610a6282610f84565b610a6c8185610fab565b9350610a7c818560208601611100565b80840191505092915050565b6000610a9382610f8f565b610a9d8185610fb6565b9350610aad818560208601611100565b610ab6816112ae565b840191505092915050565b6000610acc82610f8f565b610ad68185610fc7565b9350610ae6818560208601611100565b80840191505092915050565b6000610aff600983610fc7565b9150610b0a826112bf565b600982019050919050565b6000610b22600183610fc7565b9150610b2d826112e8565b600182019050919050565b6000610b45600483610fc7565b9150610b5082611311565b600482019050919050565b6000610b68601883610fc7565b9150610b738261133a565b601882019050919050565b6000610b8b600f83610fc7565b9150610b9682611363565b600f82019050919050565b6000610bae600483610fc7565b9150610bb98261138c565b600482019050919050565b6000610bd1600383610fc7565b9150610bdc826113b5565b600382019050919050565b6000610bf4600a83610fc7565b9150610bff826113de565b600a82019050919050565b6000610c17601d83610fc7565b9150610c2282611407565b601d82019050919050565b6000610c3a600b83610fc7565b9150610c4582611430565b600b82019050919050565b6000610c5d601583610fc7565b9150610c6882611459565b601582019050919050565b6000610c80600183610fc7565b9150610c8b82611482565b600182019050919050565b6000610ca3601183610fc7565b9150610cae826114ab565b601182019050919050565b6000610cc482610af2565b9150610cd08285610ac1565b9150610cdb82610b38565b9150610ce78284610ac1565b9150610cf282610ba1565b91508190509392505050565b6000610d0982610af2565b9150610d158287610ac1565b9150610d2082610b38565b9150610d2c8286610ac1565b9150610d3782610c50565b9150610d438285610ac1565b9150610d4e82610b38565b9150610d5a8284610ac1565b9150610d6582610ba1565b915081905095945050505050565b6000610d7e82610be7565b9150610d8a828a610ac1565b9150610d9582610b15565b9150610da18289610ac1565b9150610dad8288610a57565b9150610db882610ba1565b9150610dc382610b7e565b9150610dcf8287610ac1565b9150610dda82610ba1565b9150610de68286610ac1565b9150610df182610b5b565b9150610dfd8285610ac1565b9150610e0882610c2d565b9150610e148284610ac1565b9150610e1f82610bc4565b915081905098975050505050505050565b6000610e3b82610c0a565b9150610e478284610ac1565b915081905092915050565b6000610e5d82610c73565b9150610e698284610ac1565b915081905092915050565b6000610e7f82610c96565b9150610e8b8285610ac1565b9150610e9682610b38565b9150610ea28284610ac1565b9150610ead82610ba1565b91508190509392505050565b60006020820190508181036000830152610ed38184610a1e565b905092915050565b60006020820190508181036000830152610ef58184610a88565b905092915050565b6000610f07610f18565b9050610f138282611133565b919050565b6000604051905090565b600067ffffffffffffffff821115610f3d57610f3c61126b565b5b610f46826112ae565b9050602081019050919050565b600067ffffffffffffffff821115610f6e57610f6d61126b565b5b610f77826112ae565b9050602081019050919050565b600081519050919050565b600081519050919050565b600082825260208201905092915050565b600081905092915050565b600082825260208201905092915050565b600081905092915050565b6000610fdd826110e7565b9150610fe8836110e7565b9250827fffffffffffffffffffffffffffffffffffffffffffffffffffffffffffffffff0382111561101d5761101c6111de565b5b828201905092915050565b6000611033826110e7565b915061103e836110e7565b92508261104e5761104d61120d565b5b828204905092915050565b6000611064826110e7565b915061106f836110e7565b9250817fffffffffffffffffffffffffffffffffffffffffffffffffffffffffffffffff04831182151516156110a8576110a76111de565b5b828202905092915050565b60006110be826110e7565b91506110c9836110e7565b9250828210156110dc576110db6111de565b5b828203905092915050565b6000819050919050565b82818337600083830152505050565b60005b8381101561111e578082015181840152602081019050611103565b8381111561112d576000848401525b50505050565b61113c826112ae565b810181811067ffffffffffffffff8211171561115b5761115a61126b565b5b80604052505050565b600061116f826110e7565b91507fffffffffffffffffffffffffffffffffffffffffffffffffffffffffffffffff8214156111a2576111a16111de565b5b600182019050919050565b60006111b8826110e7565b91506111c3836110e7565b9250826111d3576111d261120d565b5b828206905092915050565b7f4e487b7100000000000000000000000000000000000000000000000000000000600052601160045260246000fd5b7f4e487b7100000000000000000000000000000000000000000000000000000000600052601260045260246000fd5b7f4e487b7100000000000000000000000000000000000000000000000000000000600052603260045260246000fd5b7f4e487b7100000000000000000000000000000000000000000000000000000000600052604160045260246000fd5b600080fd5b600080fd5b600080fd5b600080fd5b6000601f19601f8301169050919050565b7f696d616765223a20220000000000000000000000000000000000000000000000600082015250565b7f2000000000000000000000000000000000000000000000000000000000000000600082015250565b7f3f69643d00000000000000000000000000000000000000000000000000000000600082015250565b7f70726f70657274696573223a207b226e756d626572223a200000000000000000600082015250565b7f6465736372697074696f6e223a20220000000000000000000000000000000000600082015250565b7f222c202200000000000000000000000000000000000000000000000000000000600082015250565b7f227d7d0000000000000000000000000000000000000000000000000000000000600082015250565b7f7b226e616d65223a202200000000000000000000000000000000000000000000600082015250565b7f646174613a6170706c69636174696f6e2f6a736f6e3b6261736536342c000000600082015250565b7f2c20226e616d65223a2022000000000000000000000000000000000000000000600082015250565b7f222c2022616e696d6174696f6e5f75726c223a20220000000000000000000000600082015250565b7f2f00000000000000000000000000000000000000000000000000000000000000600082015250565b7f616e696d6174696f6e5f75726c223a2022000000000000000000000000000000600082015250565b6114dd816110e7565b81146114e857600080fd5b5056fe4142434445464748494a4b4c4d4e4f505152535455565758595a6162636465666768696a6b6c6d6e6f707172737475767778797a303132333435363738392b2fa26469706673582212207733ea54277118754da6bbac7b91e4a65a5f9586fffdb46bdbb744be28d4fb7764736f6c63430008060033","opcodes":"PUSH1 0x80 PUSH1 0x40 MSTORE CALLVALUE DUP1 ISZERO PUSH2 0x10 JUMPI PUSH1 0x0 DUP1 REVERT JUMPDEST POP PUSH2 0x1561 DUP1 PUSH2 0x20 PUSH1 0x0 CODECOPY PUSH1 0x0 RETURN INVALID PUSH1 0x80 PUSH1 0x40 MSTORE CALLVALUE DUP1 ISZERO PUSH2 0x10 JUMPI PUSH1 0x0 DUP1 REVERT JUMPDEST POP PUSH1 0x4 CALLDATASIZE LT PUSH2 0x62 JUMPI PUSH1 0x0 CALLDATALOAD PUSH1 0xE0 SHR DUP1 PUSH4 0x170DC660 EQ PUSH2 0x67 JUMPI DUP1 PUSH4 0x58464F30 EQ PUSH2 0x97 JUMPI DUP1 PUSH4 0xD01FDE8C EQ PUSH2 0xC7 JUMPI DUP1 PUSH4 0xD5FB1B19 EQ PUSH2 0xF7 JUMPI DUP1 PUSH4 0xDF30DBA0 EQ PUSH2 0x127 JUMPI DUP1 PUSH4 0xEB111AB6 EQ PUSH2 0x157 JUMPI JUMPDEST PUSH1 0x0 DUP1 REVERT JUMPDEST PUSH2 0x81 PUSH1 0x4 DUP1 CALLDATASIZE SUB DUP2 ADD SWAP1 PUSH2 0x7C SWAP2 SWAP1 PUSH2 0x9F1 JUMP JUMPDEST PUSH2 0x187 JUMP JUMPDEST PUSH1 0x40 MLOAD PUSH2 0x8E SWAP2 SWAP1 PUSH2 0xEDB JUMP JUMPDEST PUSH1 0x40 MLOAD DUP1 SWAP2 SUB SWAP1 RETURN JUMPDEST PUSH2 0xB1 PUSH1 0x4 DUP1 CALLDATASIZE SUB DUP2 ADD SWAP1 PUSH2 0xAC SWAP2 SWAP1 PUSH2 0x897 JUMP JUMPDEST PUSH2 0x199 JUMP JUMPDEST PUSH1 0x40 MLOAD PUSH2 0xBE SWAP2 SWAP1 PUSH2 0xEB9 JUMP JUMPDEST PUSH1 0x40 MLOAD DUP1 SWAP2 SUB SWAP1 RETURN JUMPDEST PUSH2 0xE1 PUSH1 0x4 DUP1 CALLDATASIZE SUB DUP2 ADD SWAP1 PUSH2 0xDC SWAP2 SWAP1 PUSH2 0x751 JUMP JUMPDEST PUSH2 0x218 JUMP JUMPDEST PUSH1 0x40 MLOAD PUSH2 0xEE SWAP2 SWAP1 PUSH2 0xEDB JUMP JUMPDEST PUSH1 0x40 MLOAD DUP1 SWAP2 SUB SWAP1 RETURN JUMPDEST PUSH2 0x111 PUSH1 0x4 DUP1 CALLDATASIZE SUB DUP2 ADD SWAP1 PUSH2 0x10C SWAP2 SWAP1 PUSH2 0x751 JUMP JUMPDEST PUSH2 0x249 JUMP JUMPDEST PUSH1 0x40 MLOAD PUSH2 0x11E SWAP2 SWAP1 PUSH2 0xEDB JUMP JUMPDEST PUSH1 0x40 MLOAD DUP1 SWAP2 SUB SWAP1 RETURN JUMPDEST PUSH2 0x141 PUSH1 0x4 DUP1 CALLDATASIZE SUB DUP2 ADD SWAP1 PUSH2 0x13C SWAP2 SWAP1 PUSH2 0x79A JUMP JUMPDEST PUSH2 0x25B JUMP JUMPDEST PUSH1 0x40 MLOAD PUSH2 0x14E SWAP2 SWAP1 PUSH2 0xEDB JUMP JUMPDEST PUSH1 0x40 MLOAD DUP1 SWAP2 SUB SWAP1 RETURN JUMPDEST PUSH2 0x171 PUSH1 0x4 DUP1 CALLDATASIZE SUB DUP2 ADD SWAP1 PUSH2 0x16C SWAP2 SWAP1 PUSH2 0x966 JUMP JUMPDEST PUSH2 0x294 JUMP JUMPDEST PUSH1 0x40 MLOAD PUSH2 0x17E SWAP2 SWAP1 PUSH2 0xEDB JUMP JUMPDEST PUSH1 0x40 MLOAD DUP1 SWAP2 SUB SWAP1 RETURN JUMPDEST PUSH1 0x60 PUSH2 0x192 DUP3 PUSH2 0x382 JUMP JUMPDEST SWAP1 POP SWAP2 SWAP1 POP JUMP JUMPDEST PUSH1 0x60 DUP1 PUSH1 0x0 DUP4 GT ISZERO PUSH2 0x1D0 JUMPI PUSH2 0x1AE DUP4 PUSH2 0x187 JUMP JUMPDEST PUSH1 0x40 MLOAD PUSH1 0x20 ADD PUSH2 0x1BE SWAP2 SWAP1 PUSH2 0xE52 JUMP JUMPDEST PUSH1 0x40 MLOAD PUSH1 0x20 DUP2 DUP4 SUB SUB DUP2 MSTORE SWAP1 PUSH1 0x40 MSTORE SWAP1 POP JUMPDEST DUP7 PUSH2 0x1DA DUP6 PUSH2 0x187 JUMP JUMPDEST DUP3 DUP9 DUP9 PUSH2 0x1E6 DUP10 PUSH2 0x187 JUMP JUMPDEST DUP13 PUSH1 0x40 MLOAD PUSH1 0x20 ADD PUSH2 0x1FD SWAP8 SWAP7 SWAP6 SWAP5 SWAP4 SWAP3 SWAP2 SWAP1 PUSH2 0xD73 JUMP JUMPDEST PUSH1 0x40 MLOAD PUSH1 0x20 DUP2 DUP4 SUB SUB DUP2 MSTORE SWAP1 PUSH1 0x40 MSTORE SWAP2 POP POP SWAP6 SWAP5 POP POP POP POP POP JUMP JUMPDEST PUSH1 0x60 PUSH2 0x223 DUP3 PUSH2 0x249 JUMP JUMPDEST PUSH1 0x40 MLOAD PUSH1 0x20 ADD PUSH2 0x233 SWAP2 SWAP1 PUSH2 0xE30 JUMP JUMPDEST PUSH1 0x40 MLOAD PUSH1 0x20 DUP2 DUP4 SUB SUB DUP2 MSTORE SWAP1 PUSH1 0x40 MSTORE SWAP1 POP SWAP2 SWAP1 POP JUMP JUMPDEST PUSH1 0x60 PUSH2 0x254 DUP3 PUSH2 0x4E3 JUMP JUMPDEST SWAP1 POP SWAP2 SWAP1 POP JUMP JUMPDEST PUSH1 0x60 PUSH1 0x0 PUSH2 0x26A DUP7 DUP7 DUP7 PUSH2 0x294 JUMP JUMPDEST SWAP1 POP PUSH1 0x0 PUSH2 0x27B DUP10 DUP10 DUP5 DUP9 DUP9 PUSH2 0x199 JUMP JUMPDEST SWAP1 POP PUSH2 0x286 DUP2 PUSH2 0x218 JUMP JUMPDEST SWAP3 POP POP POP SWAP7 SWAP6 POP POP POP POP POP POP JUMP JUMPDEST PUSH1 0x60 PUSH1 0x0 DUP1 DUP6 MLOAD GT SWAP1 POP PUSH1 0x0 DUP1 DUP6 MLOAD GT SWAP1 POP DUP2 DUP1 ISZERO PUSH2 0x2B0 JUMPI POP DUP1 JUMPDEST ISZERO PUSH2 0x2F4 JUMPI DUP6 PUSH2 0x2BF DUP6 PUSH2 0x187 JUMP JUMPDEST DUP7 PUSH2 0x2C9 DUP8 PUSH2 0x187 JUMP JUMPDEST PUSH1 0x40 MLOAD PUSH1 0x20 ADD PUSH2 0x2DC SWAP5 SWAP4 SWAP3 SWAP2 SWAP1 PUSH2 0xCFE JUMP JUMPDEST PUSH1 0x40 MLOAD PUSH1 0x20 DUP2 DUP4 SUB SUB DUP2 MSTORE SWAP1 PUSH1 0x40 MSTORE SWAP3 POP POP POP PUSH2 0x37B JUMP JUMPDEST DUP2 ISZERO PUSH2 0x32D JUMPI DUP6 PUSH2 0x304 DUP6 PUSH2 0x187 JUMP JUMPDEST PUSH1 0x40 MLOAD PUSH1 0x20 ADD PUSH2 0x315 SWAP3 SWAP2 SWAP1 PUSH2 0xCB9 JUMP JUMPDEST PUSH1 0x40 MLOAD PUSH1 0x20 DUP2 DUP4 SUB SUB DUP2 MSTORE SWAP1 PUSH1 0x40 MSTORE SWAP3 POP POP POP PUSH2 0x37B JUMP JUMPDEST DUP1 ISZERO PUSH2 0x366 JUMPI DUP5 PUSH2 0x33D DUP6 PUSH2 0x187 JUMP JUMPDEST PUSH1 0x40 MLOAD PUSH1 0x20 ADD PUSH2 0x34E SWAP3 SWAP2 SWAP1 PUSH2 0xE74 JUMP JUMPDEST PUSH1 0x40 MLOAD PUSH1 0x20 DUP2 DUP4 SUB SUB DUP2 MSTORE SWAP1 PUSH1 0x40 MSTORE SWAP3 POP POP POP PUSH2 0x37B JUMP JUMPDEST PUSH1 0x40 MLOAD DUP1 PUSH1 0x20 ADD PUSH1 0x40 MSTORE DUP1 PUSH1 0x0 DUP2 MSTORE POP SWAP3 POP POP POP JUMPDEST SWAP4 SWAP3 POP POP POP JUMP JUMPDEST PUSH1 0x60 PUSH1 0x0 DUP3 EQ ISZERO PUSH2 0x3CA JUMPI PUSH1 0x40 MLOAD DUP1 PUSH1 0x40 ADD PUSH1 0x40 MSTORE DUP1 PUSH1 0x1 DUP2 MSTORE PUSH1 0x20 ADD PUSH32 0x3000000000000000000000000000000000000000000000000000000000000000 DUP2 MSTORE POP SWAP1 POP PUSH2 0x4DE JUMP JUMPDEST PUSH1 0x0 DUP3 SWAP1 POP PUSH1 0x0 JUMPDEST PUSH1 0x0 DUP3 EQ PUSH2 0x3FC JUMPI DUP1 DUP1 PUSH2 0x3E5 SWAP1 PUSH2 0x1164 JUMP JUMPDEST SWAP2 POP POP PUSH1 0xA DUP3 PUSH2 0x3F5 SWAP2 SWAP1 PUSH2 0x1028 JUMP JUMPDEST SWAP2 POP PUSH2 0x3D2 JUMP JUMPDEST PUSH1 0x0 DUP2 PUSH8 0xFFFFFFFFFFFFFFFF DUP2 GT ISZERO PUSH2 0x418 JUMPI PUSH2 0x417 PUSH2 0x126B JUMP JUMPDEST JUMPDEST PUSH1 0x40 MLOAD SWAP1 DUP1 DUP3 MSTORE DUP1 PUSH1 0x1F ADD PUSH1 0x1F NOT AND PUSH1 0x20 ADD DUP3 ADD PUSH1 0x40 MSTORE DUP1 ISZERO PUSH2 0x44A JUMPI DUP2 PUSH1 0x20 ADD PUSH1 0x1 DUP3 MUL DUP1 CALLDATASIZE DUP4 CALLDATACOPY DUP1 DUP3 ADD SWAP2 POP POP SWAP1 POP JUMPDEST POP SWAP1 POP JUMPDEST PUSH1 0x0 DUP6 EQ PUSH2 0x4D7 JUMPI PUSH1 0x1 DUP3 PUSH2 0x463 SWAP2 SWAP1 PUSH2 0x10B3 JUMP JUMPDEST SWAP2 POP PUSH1 0xA DUP6 PUSH2 0x472 SWAP2 SWAP1 PUSH2 0x11AD JUMP JUMPDEST PUSH1 0x30 PUSH2 0x47E SWAP2 SWAP1 PUSH2 0xFD2 JUMP JUMPDEST PUSH1 0xF8 SHL DUP2 DUP4 DUP2 MLOAD DUP2 LT PUSH2 0x494 JUMPI PUSH2 0x493 PUSH2 0x123C JUMP JUMPDEST JUMPDEST PUSH1 0x20 ADD ADD SWAP1 PUSH31 0xFFFFFFFFFFFFFFFFFFFFFFFFFFFFFFFFFFFFFFFFFFFFFFFFFFFFFFFFFFFFFF NOT AND SWAP1 DUP2 PUSH1 0x0 BYTE SWAP1 MSTORE8 POP PUSH1 0xA DUP6 PUSH2 0x4D0 SWAP2 SWAP1 PUSH2 0x1028 JUMP JUMPDEST SWAP5 POP PUSH2 0x44E JUMP JUMPDEST DUP1 SWAP4 POP POP POP POP JUMPDEST SWAP2 SWAP1 POP JUMP JUMPDEST PUSH1 0x60 PUSH1 0x0 DUP3 MLOAD EQ ISZERO PUSH2 0x506 JUMPI PUSH1 0x40 MLOAD DUP1 PUSH1 0x20 ADD PUSH1 0x40 MSTORE DUP1 PUSH1 0x0 DUP2 MSTORE POP SWAP1 POP PUSH2 0x657 JUMP JUMPDEST PUSH1 0x0 PUSH1 0x40 MLOAD DUP1 PUSH1 0x60 ADD PUSH1 0x40 MSTORE DUP1 PUSH1 0x40 DUP2 MSTORE PUSH1 0x20 ADD PUSH2 0x14EC PUSH1 0x40 SWAP2 CODECOPY SWAP1 POP PUSH1 0x0 PUSH1 0x3 PUSH1 0x2 DUP6 MLOAD PUSH2 0x535 SWAP2 SWAP1 PUSH2 0xFD2 JUMP JUMPDEST PUSH2 0x53F SWAP2 SWAP1 PUSH2 0x1028 JUMP JUMPDEST PUSH1 0x4 PUSH2 0x54B SWAP2 SWAP1 PUSH2 0x1059 JUMP JUMPDEST SWAP1 POP PUSH1 0x0 PUSH1 0x20 DUP3 PUSH2 0x55C SWAP2 SWAP1 PUSH2 0xFD2 JUMP JUMPDEST PUSH8 0xFFFFFFFFFFFFFFFF DUP2 GT ISZERO PUSH2 0x575 JUMPI PUSH2 0x574 PUSH2 0x126B JUMP JUMPDEST JUMPDEST PUSH1 0x40 MLOAD SWAP1 DUP1 DUP3 MSTORE DUP1 PUSH1 0x1F ADD PUSH1 0x1F NOT AND PUSH1 0x20 ADD DUP3 ADD PUSH1 0x40 MSTORE DUP1 ISZERO PUSH2 0x5A7 JUMPI DUP2 PUSH1 0x20 ADD PUSH1 0x1 DUP3 MUL DUP1 CALLDATASIZE DUP4 CALLDATACOPY DUP1 DUP3 ADD SWAP2 POP POP SWAP1 POP JUMPDEST POP SWAP1 POP DUP2 DUP2 MSTORE PUSH1 0x1 DUP4 ADD DUP6 DUP7 MLOAD DUP2 ADD PUSH1 0x20 DUP5 ADD JUMPDEST DUP2 DUP4 LT ISZERO PUSH2 0x616 JUMPI PUSH1 0x3 DUP4 ADD SWAP3 POP DUP3 MLOAD PUSH1 0x3F DUP2 PUSH1 0x12 SHR AND DUP6 ADD MLOAD DUP3 MSTORE8 PUSH1 0x1 DUP3 ADD SWAP2 POP PUSH1 0x3F DUP2 PUSH1 0xC SHR AND DUP6 ADD MLOAD DUP3 MSTORE8 PUSH1 0x1 DUP3 ADD SWAP2 POP PUSH1 0x3F DUP2 PUSH1 0x6 SHR AND DUP6 ADD MLOAD DUP3 MSTORE8 PUSH1 0x1 DUP3 ADD SWAP2 POP PUSH1 0x3F DUP2 AND DUP6 ADD MLOAD DUP3 MSTORE8 PUSH1 0x1 DUP3 ADD SWAP2 POP POP PUSH2 0x5BB JUMP JUMPDEST PUSH1 0x3 DUP10 MLOAD MOD PUSH1 0x1 DUP2 EQ PUSH2 0x630 JUMPI PUSH1 0x2 DUP2 EQ PUSH2 0x640 JUMPI PUSH2 0x64B JUMP JUMPDEST PUSH2 0x3D3D PUSH1 0xF0 SHL PUSH1 0x2 DUP4 SUB MSTORE PUSH2 0x64B JUMP JUMPDEST PUSH1 0x3D PUSH1 0xF8 SHL PUSH1 0x1 DUP4 SUB MSTORE JUMPDEST POP POP POP POP POP DUP1 SWAP4 POP POP POP POP JUMPDEST SWAP2 SWAP1 POP JUMP JUMPDEST PUSH1 0x0 PUSH2 0x66F PUSH2 0x66A DUP5 PUSH2 0xF22 JUMP JUMPDEST PUSH2 0xEFD JUMP JUMPDEST SWAP1 POP DUP3 DUP2 MSTORE PUSH1 0x20 DUP2 ADD DUP5 DUP5 DUP5 ADD GT ISZERO PUSH2 0x68B JUMPI PUSH2 0x68A PUSH2 0x129F JUMP JUMPDEST JUMPDEST PUSH2 0x696 DUP5 DUP3 DUP6 PUSH2 0x10F1 JUMP JUMPDEST POP SWAP4 SWAP3 POP POP POP JUMP JUMPDEST PUSH1 0x0 PUSH2 0x6B1 PUSH2 0x6AC DUP5 PUSH2 0xF53 JUMP JUMPDEST PUSH2 0xEFD JUMP JUMPDEST SWAP1 POP DUP3 DUP2 MSTORE PUSH1 0x20 DUP2 ADD DUP5 DUP5 DUP5 ADD GT ISZERO PUSH2 0x6CD JUMPI PUSH2 0x6CC PUSH2 0x129F JUMP JUMPDEST JUMPDEST PUSH2 0x6D8 DUP5 DUP3 DUP6 PUSH2 0x10F1 JUMP JUMPDEST POP SWAP4 SWAP3 POP POP POP JUMP JUMPDEST PUSH1 0x0 DUP3 PUSH1 0x1F DUP4 ADD SLT PUSH2 0x6F5 JUMPI PUSH2 0x6F4 PUSH2 0x129A JUMP JUMPDEST JUMPDEST DUP2 CALLDATALOAD PUSH2 0x705 DUP5 DUP3 PUSH1 0x20 DUP7 ADD PUSH2 0x65C JUMP JUMPDEST SWAP2 POP POP SWAP3 SWAP2 POP POP JUMP JUMPDEST PUSH1 0x0 DUP3 PUSH1 0x1F DUP4 ADD SLT PUSH2 0x723 JUMPI PUSH2 0x722 PUSH2 0x129A JUMP JUMPDEST JUMPDEST DUP2 CALLDATALOAD PUSH2 0x733 DUP5 DUP3 PUSH1 0x20 DUP7 ADD PUSH2 0x69E JUMP JUMPDEST SWAP2 POP POP SWAP3 SWAP2 POP POP JUMP JUMPDEST PUSH1 0x0 DUP2 CALLDATALOAD SWAP1 POP PUSH2 0x74B DUP2 PUSH2 0x14D4 JUMP JUMPDEST SWAP3 SWAP2 POP POP JUMP JUMPDEST PUSH1 0x0 PUSH1 0x20 DUP3 DUP5 SUB SLT ISZERO PUSH2 0x767 JUMPI PUSH2 0x766 PUSH2 0x12A9 JUMP JUMPDEST JUMPDEST PUSH1 0x0 DUP3 ADD CALLDATALOAD PUSH8 0xFFFFFFFFFFFFFFFF DUP2 GT ISZERO PUSH2 0x785 JUMPI PUSH2 0x784 PUSH2 0x12A4 JUMP JUMPDEST JUMPDEST PUSH2 0x791 DUP5 DUP3 DUP6 ADD PUSH2 0x6E0 JUMP JUMPDEST SWAP2 POP POP SWAP3 SWAP2 POP POP JUMP JUMPDEST PUSH1 0x0 DUP1 PUSH1 0x0 DUP1 PUSH1 0x0 DUP1 PUSH1 0xC0 DUP8 DUP10 SUB SLT ISZERO PUSH2 0x7B7 JUMPI PUSH2 0x7B6 PUSH2 0x12A9 JUMP JUMPDEST JUMPDEST PUSH1 0x0 DUP8 ADD CALLDATALOAD PUSH8 0xFFFFFFFFFFFFFFFF DUP2 GT ISZERO PUSH2 0x7D5 JUMPI PUSH2 0x7D4 PUSH2 0x12A4 JUMP JUMPDEST JUMPDEST PUSH2 0x7E1 DUP10 DUP3 DUP11 ADD PUSH2 0x70E JUMP JUMPDEST SWAP7 POP POP PUSH1 0x20 DUP8 ADD CALLDATALOAD PUSH8 0xFFFFFFFFFFFFFFFF DUP2 GT ISZERO PUSH2 0x802 JUMPI PUSH2 0x801 PUSH2 0x12A4 JUMP JUMPDEST JUMPDEST PUSH2 0x80E DUP10 DUP3 DUP11 ADD PUSH2 0x70E JUMP JUMPDEST SWAP6 POP POP PUSH1 0x40 DUP8 ADD CALLDATALOAD PUSH8 0xFFFFFFFFFFFFFFFF DUP2 GT ISZERO PUSH2 0x82F JUMPI PUSH2 0x82E PUSH2 0x12A4 JUMP JUMPDEST JUMPDEST PUSH2 0x83B DUP10 DUP3 DUP11 ADD PUSH2 0x70E JUMP JUMPDEST SWAP5 POP POP PUSH1 0x60 DUP8 ADD CALLDATALOAD PUSH8 0xFFFFFFFFFFFFFFFF DUP2 GT ISZERO PUSH2 0x85C JUMPI PUSH2 0x85B PUSH2 0x12A4 JUMP JUMPDEST JUMPDEST PUSH2 0x868 DUP10 DUP3 DUP11 ADD PUSH2 0x70E JUMP JUMPDEST SWAP4 POP POP PUSH1 0x80 PUSH2 0x879 DUP10 DUP3 DUP11 ADD PUSH2 0x73C JUMP JUMPDEST SWAP3 POP POP PUSH1 0xA0 PUSH2 0x88A DUP10 DUP3 DUP11 ADD PUSH2 0x73C JUMP JUMPDEST SWAP2 POP POP SWAP3 SWAP6 POP SWAP3 SWAP6 POP SWAP3 SWAP6 JUMP JUMPDEST PUSH1 0x0 DUP1 PUSH1 0x0 DUP1 PUSH1 0x0 PUSH1 0xA0 DUP7 DUP9 SUB SLT ISZERO PUSH2 0x8B3 JUMPI PUSH2 0x8B2 PUSH2 0x12A9 JUMP JUMPDEST JUMPDEST PUSH1 0x0 DUP7 ADD CALLDATALOAD PUSH8 0xFFFFFFFFFFFFFFFF DUP2 GT ISZERO PUSH2 0x8D1 JUMPI PUSH2 0x8D0 PUSH2 0x12A4 JUMP JUMPDEST JUMPDEST PUSH2 0x8DD DUP9 DUP3 DUP10 ADD PUSH2 0x70E JUMP JUMPDEST SWAP6 POP POP PUSH1 0x20 DUP7 ADD CALLDATALOAD PUSH8 0xFFFFFFFFFFFFFFFF DUP2 GT ISZERO PUSH2 0x8FE JUMPI PUSH2 0x8FD PUSH2 0x12A4 JUMP JUMPDEST JUMPDEST PUSH2 0x90A DUP9 DUP3 DUP10 ADD PUSH2 0x70E JUMP JUMPDEST SWAP5 POP POP PUSH1 0x40 DUP7 ADD CALLDATALOAD PUSH8 0xFFFFFFFFFFFFFFFF DUP2 GT ISZERO PUSH2 0x92B JUMPI PUSH2 0x92A PUSH2 0x12A4 JUMP JUMPDEST JUMPDEST PUSH2 0x937 DUP9 DUP3 DUP10 ADD PUSH2 0x70E JUMP JUMPDEST SWAP4 POP POP PUSH1 0x60 PUSH2 0x948 DUP9 DUP3 DUP10 ADD PUSH2 0x73C JUMP JUMPDEST SWAP3 POP POP PUSH1 0x80 PUSH2 0x959 DUP9 DUP3 DUP10 ADD PUSH2 0x73C JUMP JUMPDEST SWAP2 POP POP SWAP3 SWAP6 POP SWAP3 SWAP6 SWAP1 SWAP4 POP JUMP JUMPDEST PUSH1 0x0 DUP1 PUSH1 0x0 PUSH1 0x60 DUP5 DUP7 SUB SLT ISZERO PUSH2 0x97F JUMPI PUSH2 0x97E PUSH2 0x12A9 JUMP JUMPDEST JUMPDEST PUSH1 0x0 DUP5 ADD CALLDATALOAD PUSH8 0xFFFFFFFFFFFFFFFF DUP2 GT ISZERO PUSH2 0x99D JUMPI PUSH2 0x99C PUSH2 0x12A4 JUMP JUMPDEST JUMPDEST PUSH2 0x9A9 DUP7 DUP3 DUP8 ADD PUSH2 0x70E JUMP JUMPDEST SWAP4 POP POP PUSH1 0x20 DUP5 ADD CALLDATALOAD PUSH8 0xFFFFFFFFFFFFFFFF DUP2 GT ISZERO PUSH2 0x9CA JUMPI PUSH2 0x9C9 PUSH2 0x12A4 JUMP JUMPDEST JUMPDEST PUSH2 0x9D6 DUP7 DUP3 DUP8 ADD PUSH2 0x70E JUMP JUMPDEST SWAP3 POP POP PUSH1 0x40 PUSH2 0x9E7 DUP7 DUP3 DUP8 ADD PUSH2 0x73C JUMP JUMPDEST SWAP2 POP POP SWAP3 POP SWAP3 POP SWAP3 JUMP JUMPDEST PUSH1 0x0 PUSH1 0x20 DUP3 DUP5 SUB SLT ISZERO PUSH2 0xA07 JUMPI PUSH2 0xA06 PUSH2 0x12A9 JUMP JUMPDEST JUMPDEST PUSH1 0x0 PUSH2 0xA15 DUP5 DUP3 DUP6 ADD PUSH2 0x73C JUMP JUMPDEST SWAP2 POP POP SWAP3 SWAP2 POP POP JUMP JUMPDEST PUSH1 0x0 PUSH2 0xA29 DUP3 PUSH2 0xF84 JUMP JUMPDEST PUSH2 0xA33 DUP2 DUP6 PUSH2 0xF9A JUMP JUMPDEST SWAP4 POP PUSH2 0xA43 DUP2 DUP6 PUSH1 0x20 DUP7 ADD PUSH2 0x1100 JUMP JUMPDEST PUSH2 0xA4C DUP2 PUSH2 0x12AE JUMP JUMPDEST DUP5 ADD SWAP2 POP POP SWAP3 SWAP2 POP POP JUMP JUMPDEST PUSH1 0x0 PUSH2 0xA62 DUP3 PUSH2 0xF84 JUMP JUMPDEST PUSH2 0xA6C DUP2 DUP6 PUSH2 0xFAB JUMP JUMPDEST SWAP4 POP PUSH2 0xA7C DUP2 DUP6 PUSH1 0x20 DUP7 ADD PUSH2 0x1100 JUMP JUMPDEST DUP1 DUP5 ADD SWAP2 POP POP SWAP3 SWAP2 POP POP JUMP JUMPDEST PUSH1 0x0 PUSH2 0xA93 DUP3 PUSH2 0xF8F JUMP JUMPDEST PUSH2 0xA9D DUP2 DUP6 PUSH2 0xFB6 JUMP JUMPDEST SWAP4 POP PUSH2 0xAAD DUP2 DUP6 PUSH1 0x20 DUP7 ADD PUSH2 0x1100 JUMP JUMPDEST PUSH2 0xAB6 DUP2 PUSH2 0x12AE JUMP JUMPDEST DUP5 ADD SWAP2 POP POP SWAP3 SWAP2 POP POP JUMP JUMPDEST PUSH1 0x0 PUSH2 0xACC DUP3 PUSH2 0xF8F JUMP JUMPDEST PUSH2 0xAD6 DUP2 DUP6 PUSH2 0xFC7 JUMP JUMPDEST SWAP4 POP PUSH2 0xAE6 DUP2 DUP6 PUSH1 0x20 DUP7 ADD PUSH2 0x1100 JUMP JUMPDEST DUP1 DUP5 ADD SWAP2 POP POP SWAP3 SWAP2 POP POP JUMP JUMPDEST PUSH1 0x0 PUSH2 0xAFF PUSH1 0x9 DUP4 PUSH2 0xFC7 JUMP JUMPDEST SWAP2 POP PUSH2 0xB0A DUP3 PUSH2 0x12BF JUMP JUMPDEST PUSH1 0x9 DUP3 ADD SWAP1 POP SWAP2 SWAP1 POP JUMP JUMPDEST PUSH1 0x0 PUSH2 0xB22 PUSH1 0x1 DUP4 PUSH2 0xFC7 JUMP JUMPDEST SWAP2 POP PUSH2 0xB2D DUP3 PUSH2 0x12E8 JUMP JUMPDEST PUSH1 0x1 DUP3 ADD SWAP1 POP SWAP2 SWAP1 POP JUMP JUMPDEST PUSH1 0x0 PUSH2 0xB45 PUSH1 0x4 DUP4 PUSH2 0xFC7 JUMP JUMPDEST SWAP2 POP PUSH2 0xB50 DUP3 PUSH2 0x1311 JUMP JUMPDEST PUSH1 0x4 DUP3 ADD SWAP1 POP SWAP2 SWAP1 POP JUMP JUMPDEST PUSH1 0x0 PUSH2 0xB68 PUSH1 0x18 DUP4 PUSH2 0xFC7 JUMP JUMPDEST SWAP2 POP PUSH2 0xB73 DUP3 PUSH2 0x133A JUMP JUMPDEST PUSH1 0x18 DUP3 ADD SWAP1 POP SWAP2 SWAP1 POP JUMP JUMPDEST PUSH1 0x0 PUSH2 0xB8B PUSH1 0xF DUP4 PUSH2 0xFC7 JUMP JUMPDEST SWAP2 POP PUSH2 0xB96 DUP3 PUSH2 0x1363 JUMP JUMPDEST PUSH1 0xF DUP3 ADD SWAP1 POP SWAP2 SWAP1 POP JUMP JUMPDEST PUSH1 0x0 PUSH2 0xBAE PUSH1 0x4 DUP4 PUSH2 0xFC7 JUMP JUMPDEST SWAP2 POP PUSH2 0xBB9 DUP3 PUSH2 0x138C JUMP JUMPDEST PUSH1 0x4 DUP3 ADD SWAP1 POP SWAP2 SWAP1 POP JUMP JUMPDEST PUSH1 0x0 PUSH2 0xBD1 PUSH1 0x3 DUP4 PUSH2 0xFC7 JUMP JUMPDEST SWAP2 POP PUSH2 0xBDC DUP3 PUSH2 0x13B5 JUMP JUMPDEST PUSH1 0x3 DUP3 ADD SWAP1 POP SWAP2 SWAP1 POP JUMP JUMPDEST PUSH1 0x0 PUSH2 0xBF4 PUSH1 0xA DUP4 PUSH2 0xFC7 JUMP JUMPDEST SWAP2 POP PUSH2 0xBFF DUP3 PUSH2 0x13DE JUMP JUMPDEST PUSH1 0xA DUP3 ADD SWAP1 POP SWAP2 SWAP1 POP JUMP JUMPDEST PUSH1 0x0 PUSH2 0xC17 PUSH1 0x1D DUP4 PUSH2 0xFC7 JUMP JUMPDEST SWAP2 POP PUSH2 0xC22 DUP3 PUSH2 0x1407 JUMP JUMPDEST PUSH1 0x1D DUP3 ADD SWAP1 POP SWAP2 SWAP1 POP JUMP JUMPDEST PUSH1 0x0 PUSH2 0xC3A PUSH1 0xB DUP4 PUSH2 0xFC7 JUMP JUMPDEST SWAP2 POP PUSH2 0xC45 DUP3 PUSH2 0x1430 JUMP JUMPDEST PUSH1 0xB DUP3 ADD SWAP1 POP SWAP2 SWAP1 POP JUMP JUMPDEST PUSH1 0x0 PUSH2 0xC5D PUSH1 0x15 DUP4 PUSH2 0xFC7 JUMP JUMPDEST SWAP2 POP PUSH2 0xC68 DUP3 PUSH2 0x1459 JUMP JUMPDEST PUSH1 0x15 DUP3 ADD SWAP1 POP SWAP2 SWAP1 POP JUMP JUMPDEST PUSH1 0x0 PUSH2 0xC80 PUSH1 0x1 DUP4 PUSH2 0xFC7 JUMP JUMPDEST SWAP2 POP PUSH2 0xC8B DUP3 PUSH2 0x1482 JUMP JUMPDEST PUSH1 0x1 DUP3 ADD SWAP1 POP SWAP2 SWAP1 POP JUMP JUMPDEST PUSH1 0x0 PUSH2 0xCA3 PUSH1 0x11 DUP4 PUSH2 0xFC7 JUMP JUMPDEST SWAP2 POP PUSH2 0xCAE DUP3 PUSH2 0x14AB JUMP JUMPDEST PUSH1 0x11 DUP3 ADD SWAP1 POP SWAP2 SWAP1 POP JUMP JUMPDEST PUSH1 0x0 PUSH2 0xCC4 DUP3 PUSH2 0xAF2 JUMP JUMPDEST SWAP2 POP PUSH2 0xCD0 DUP3 DUP6 PUSH2 0xAC1 JUMP JUMPDEST SWAP2 POP PUSH2 0xCDB DUP3 PUSH2 0xB38 JUMP JUMPDEST SWAP2 POP PUSH2 0xCE7 DUP3 DUP5 PUSH2 0xAC1 JUMP JUMPDEST SWAP2 POP PUSH2 0xCF2 DUP3 PUSH2 0xBA1 JUMP JUMPDEST SWAP2 POP DUP2 SWAP1 POP SWAP4 SWAP3 POP POP POP JUMP JUMPDEST PUSH1 0x0 PUSH2 0xD09 DUP3 PUSH2 0xAF2 JUMP JUMPDEST SWAP2 POP PUSH2 0xD15 DUP3 DUP8 PUSH2 0xAC1 JUMP JUMPDEST SWAP2 POP PUSH2 0xD20 DUP3 PUSH2 0xB38 JUMP JUMPDEST SWAP2 POP PUSH2 0xD2C DUP3 DUP7 PUSH2 0xAC1 JUMP JUMPDEST SWAP2 POP PUSH2 0xD37 DUP3 PUSH2 0xC50 JUMP JUMPDEST SWAP2 POP PUSH2 0xD43 DUP3 DUP6 PUSH2 0xAC1 JUMP JUMPDEST SWAP2 POP PUSH2 0xD4E DUP3 PUSH2 0xB38 JUMP JUMPDEST SWAP2 POP PUSH2 0xD5A DUP3 DUP5 PUSH2 0xAC1 JUMP JUMPDEST SWAP2 POP PUSH2 0xD65 DUP3 PUSH2 0xBA1 JUMP JUMPDEST SWAP2 POP DUP2 SWAP1 POP SWAP6 SWAP5 POP POP POP POP POP JUMP JUMPDEST PUSH1 0x0 PUSH2 0xD7E DUP3 PUSH2 0xBE7 JUMP JUMPDEST SWAP2 POP PUSH2 0xD8A DUP3 DUP11 PUSH2 0xAC1 JUMP JUMPDEST SWAP2 POP PUSH2 0xD95 DUP3 PUSH2 0xB15 JUMP JUMPDEST SWAP2 POP PUSH2 0xDA1 DUP3 DUP10 PUSH2 0xAC1 JUMP JUMPDEST SWAP2 POP PUSH2 0xDAD DUP3 DUP9 PUSH2 0xA57 JUMP JUMPDEST SWAP2 POP PUSH2 0xDB8 DUP3 PUSH2 0xBA1 JUMP JUMPDEST SWAP2 POP PUSH2 0xDC3 DUP3 PUSH2 0xB7E JUMP JUMPDEST SWAP2 POP PUSH2 0xDCF DUP3 DUP8 PUSH2 0xAC1 JUMP JUMPDEST SWAP2 POP PUSH2 0xDDA DUP3 PUSH2 0xBA1 JUMP JUMPDEST SWAP2 POP PUSH2 0xDE6 DUP3 DUP7 PUSH2 0xAC1 JUMP JUMPDEST SWAP2 POP PUSH2 0xDF1 DUP3 PUSH2 0xB5B JUMP JUMPDEST SWAP2 POP PUSH2 0xDFD DUP3 DUP6 PUSH2 0xAC1 JUMP JUMPDEST SWAP2 POP PUSH2 0xE08 DUP3 PUSH2 0xC2D JUMP JUMPDEST SWAP2 POP PUSH2 0xE14 DUP3 DUP5 PUSH2 0xAC1 JUMP JUMPDEST SWAP2 POP PUSH2 0xE1F DUP3 PUSH2 0xBC4 JUMP JUMPDEST SWAP2 POP DUP2 SWAP1 POP SWAP9 SWAP8 POP POP POP POP POP POP POP POP JUMP JUMPDEST PUSH1 0x0 PUSH2 0xE3B DUP3 PUSH2 0xC0A JUMP JUMPDEST SWAP2 POP PUSH2 0xE47 DUP3 DUP5 PUSH2 0xAC1 JUMP JUMPDEST SWAP2 POP DUP2 SWAP1 POP SWAP3 SWAP2 POP POP JUMP JUMPDEST PUSH1 0x0 PUSH2 0xE5D DUP3 PUSH2 0xC73 JUMP JUMPDEST SWAP2 POP PUSH2 0xE69 DUP3 DUP5 PUSH2 0xAC1 JUMP JUMPDEST SWAP2 POP DUP2 SWAP1 POP SWAP3 SWAP2 POP POP JUMP JUMPDEST PUSH1 0x0 PUSH2 0xE7F DUP3 PUSH2 0xC96 JUMP JUMPDEST SWAP2 POP PUSH2 0xE8B DUP3 DUP6 PUSH2 0xAC1 JUMP JUMPDEST SWAP2 POP PUSH2 0xE96 DUP3 PUSH2 0xB38 JUMP JUMPDEST SWAP2 POP PUSH2 0xEA2 DUP3 DUP5 PUSH2 0xAC1 JUMP JUMPDEST SWAP2 POP PUSH2 0xEAD DUP3 PUSH2 0xBA1 JUMP JUMPDEST SWAP2 POP DUP2 SWAP1 POP SWAP4 SWAP3 POP POP POP JUMP JUMPDEST PUSH1 0x0 PUSH1 0x20 DUP3 ADD SWAP1 POP DUP2 DUP2 SUB PUSH1 0x0 DUP4 ADD MSTORE PUSH2 0xED3 DUP2 DUP5 PUSH2 0xA1E JUMP JUMPDEST SWAP1 POP SWAP3 SWAP2 POP POP JUMP JUMPDEST PUSH1 0x0 PUSH1 0x20 DUP3 ADD SWAP1 POP DUP2 DUP2 SUB PUSH1 0x0 DUP4 ADD MSTORE PUSH2 0xEF5 DUP2 DUP5 PUSH2 0xA88 JUMP JUMPDEST SWAP1 POP SWAP3 SWAP2 POP POP JUMP JUMPDEST PUSH1 0x0 PUSH2 0xF07 PUSH2 0xF18 JUMP JUMPDEST SWAP1 POP PUSH2 0xF13 DUP3 DUP3 PUSH2 0x1133 JUMP JUMPDEST SWAP2 SWAP1 POP JUMP JUMPDEST PUSH1 0x0 PUSH1 0x40 MLOAD SWAP1 POP SWAP1 JUMP JUMPDEST PUSH1 0x0 PUSH8 0xFFFFFFFFFFFFFFFF DUP3 GT ISZERO PUSH2 0xF3D JUMPI PUSH2 0xF3C PUSH2 0x126B JUMP JUMPDEST JUMPDEST PUSH2 0xF46 DUP3 PUSH2 0x12AE JUMP JUMPDEST SWAP1 POP PUSH1 0x20 DUP2 ADD SWAP1 POP SWAP2 SWAP1 POP JUMP JUMPDEST PUSH1 0x0 PUSH8 0xFFFFFFFFFFFFFFFF DUP3 GT ISZERO PUSH2 0xF6E JUMPI PUSH2 0xF6D PUSH2 0x126B JUMP JUMPDEST JUMPDEST PUSH2 0xF77 DUP3 PUSH2 0x12AE JUMP JUMPDEST SWAP1 POP PUSH1 0x20 DUP2 ADD SWAP1 POP SWAP2 SWAP1 POP JUMP JUMPDEST PUSH1 0x0 DUP2 MLOAD SWAP1 POP SWAP2 SWAP1 POP JUMP JUMPDEST PUSH1 0x0 DUP2 MLOAD SWAP1 POP SWAP2 SWAP1 POP JUMP JUMPDEST PUSH1 0x0 DUP3 DUP3 MSTORE PUSH1 0x20 DUP3 ADD SWAP1 POP SWAP3 SWAP2 POP POP JUMP JUMPDEST PUSH1 0x0 DUP2 SWAP1 POP SWAP3 SWAP2 POP POP JUMP JUMPDEST PUSH1 0x0 DUP3 DUP3 MSTORE PUSH1 0x20 DUP3 ADD SWAP1 POP SWAP3 SWAP2 POP POP JUMP JUMPDEST PUSH1 0x0 DUP2 SWAP1 POP SWAP3 SWAP2 POP POP JUMP JUMPDEST PUSH1 0x0 PUSH2 0xFDD DUP3 PUSH2 0x10E7 JUMP JUMPDEST SWAP2 POP PUSH2 0xFE8 DUP4 PUSH2 0x10E7 JUMP JUMPDEST SWAP3 POP DUP3 PUSH32 0xFFFFFFFFFFFFFFFFFFFFFFFFFFFFFFFFFFFFFFFFFFFFFFFFFFFFFFFFFFFFFFFF SUB DUP3 GT ISZERO PUSH2 0x101D JUMPI PUSH2 0x101C PUSH2 0x11DE JUMP JUMPDEST JUMPDEST DUP3 DUP3 ADD SWAP1 POP SWAP3 SWAP2 POP POP JUMP JUMPDEST PUSH1 0x0 PUSH2 0x1033 DUP3 PUSH2 0x10E7 JUMP JUMPDEST SWAP2 POP PUSH2 0x103E DUP4 PUSH2 0x10E7 JUMP JUMPDEST SWAP3 POP DUP3 PUSH2 0x104E JUMPI PUSH2 0x104D PUSH2 0x120D JUMP JUMPDEST JUMPDEST DUP3 DUP3 DIV SWAP1 POP SWAP3 SWAP2 POP POP JUMP JUMPDEST PUSH1 0x0 PUSH2 0x1064 DUP3 PUSH2 0x10E7 JUMP JUMPDEST SWAP2 POP PUSH2 0x106F DUP4 PUSH2 0x10E7 JUMP JUMPDEST SWAP3 POP DUP2 PUSH32 0xFFFFFFFFFFFFFFFFFFFFFFFFFFFFFFFFFFFFFFFFFFFFFFFFFFFFFFFFFFFFFFFF DIV DUP4 GT DUP3 ISZERO ISZERO AND ISZERO PUSH2 0x10A8 JUMPI PUSH2 0x10A7 PUSH2 0x11DE JUMP JUMPDEST JUMPDEST DUP3 DUP3 MUL SWAP1 POP SWAP3 SWAP2 POP POP JUMP JUMPDEST PUSH1 0x0 PUSH2 0x10BE DUP3 PUSH2 0x10E7 JUMP JUMPDEST SWAP2 POP PUSH2 0x10C9 DUP4 PUSH2 0x10E7 JUMP JUMPDEST SWAP3 POP DUP3 DUP3 LT ISZERO PUSH2 0x10DC JUMPI PUSH2 0x10DB PUSH2 0x11DE JUMP JUMPDEST JUMPDEST DUP3 DUP3 SUB SWAP1 POP SWAP3 SWAP2 POP POP JUMP JUMPDEST PUSH1 0x0 DUP2 SWAP1 POP SWAP2 SWAP1 POP JUMP JUMPDEST DUP3 DUP2 DUP4 CALLDATACOPY PUSH1 0x0 DUP4 DUP4 ADD MSTORE POP POP POP JUMP JUMPDEST PUSH1 0x0 JUMPDEST DUP4 DUP2 LT ISZERO PUSH2 0x111E JUMPI DUP1 DUP3 ADD MLOAD DUP2 DUP5 ADD MSTORE PUSH1 0x20 DUP2 ADD SWAP1 POP PUSH2 0x1103 JUMP JUMPDEST DUP4 DUP2 GT ISZERO PUSH2 0x112D JUMPI PUSH1 0x0 DUP5 DUP5 ADD MSTORE JUMPDEST POP POP POP POP JUMP JUMPDEST PUSH2 0x113C DUP3 PUSH2 0x12AE JUMP JUMPDEST DUP2 ADD DUP2 DUP2 LT PUSH8 0xFFFFFFFFFFFFFFFF DUP3 GT OR ISZERO PUSH2 0x115B JUMPI PUSH2 0x115A PUSH2 0x126B JUMP JUMPDEST JUMPDEST DUP1 PUSH1 0x40 MSTORE POP POP POP JUMP JUMPDEST PUSH1 0x0 PUSH2 0x116F DUP3 PUSH2 0x10E7 JUMP JUMPDEST SWAP2 POP PUSH32 0xFFFFFFFFFFFFFFFFFFFFFFFFFFFFFFFFFFFFFFFFFFFFFFFFFFFFFFFFFFFFFFFF DUP3 EQ ISZERO PUSH2 0x11A2 JUMPI PUSH2 0x11A1 PUSH2 0x11DE JUMP JUMPDEST JUMPDEST PUSH1 0x1 DUP3 ADD SWAP1 POP SWAP2 SWAP1 POP JUMP JUMPDEST PUSH1 0x0 PUSH2 0x11B8 DUP3 PUSH2 0x10E7 JUMP JUMPDEST SWAP2 POP PUSH2 0x11C3 DUP4 PUSH2 0x10E7 JUMP JUMPDEST SWAP3 POP DUP3 PUSH2 0x11D3 JUMPI PUSH2 0x11D2 PUSH2 0x120D JUMP JUMPDEST JUMPDEST DUP3 DUP3 MOD SWAP1 POP SWAP3 SWAP2 POP POP JUMP JUMPDEST PUSH32 0x4E487B7100000000000000000000000000000000000000000000000000000000 PUSH1 0x0 MSTORE PUSH1 0x11 PUSH1 0x4 MSTORE PUSH1 0x24 PUSH1 0x0 REVERT JUMPDEST PUSH32 0x4E487B7100000000000000000000000000000000000000000000000000000000 PUSH1 0x0 MSTORE PUSH1 0x12 PUSH1 0x4 MSTORE PUSH1 0x24 PUSH1 0x0 REVERT JUMPDEST PUSH32 0x4E487B7100000000000000000000000000000000000000000000000000000000 PUSH1 0x0 MSTORE PUSH1 0x32 PUSH1 0x4 MSTORE PUSH1 0x24 PUSH1 0x0 REVERT JUMPDEST PUSH32 0x4E487B7100000000000000000000000000000000000000000000000000000000 PUSH1 0x0 MSTORE PUSH1 0x41 PUSH1 0x4 MSTORE PUSH1 0x24 PUSH1 0x0 REVERT JUMPDEST PUSH1 0x0 DUP1 REVERT JUMPDEST PUSH1 0x0 DUP1 REVERT JUMPDEST PUSH1 0x0 DUP1 REVERT JUMPDEST PUSH1 0x0 DUP1 REVERT JUMPDEST PUSH1 0x0 PUSH1 0x1F NOT PUSH1 0x1F DUP4 ADD AND SWAP1 POP SWAP2 SWAP1 POP JUMP JUMPDEST PUSH32 0x696D616765223A20220000000000000000000000000000000000000000000000 PUSH1 0x0 DUP3 ADD MSTORE POP JUMP JUMPDEST PUSH32 0x2000000000000000000000000000000000000000000000000000000000000000 PUSH1 0x0 DUP3 ADD MSTORE POP JUMP JUMPDEST PUSH32 0x3F69643D00000000000000000000000000000000000000000000000000000000 PUSH1 0x0 DUP3 ADD MSTORE POP JUMP JUMPDEST PUSH32 0x70726F70657274696573223A207B226E756D626572223A200000000000000000 PUSH1 0x0 DUP3 ADD MSTORE POP JUMP JUMPDEST PUSH32 0x6465736372697074696F6E223A20220000000000000000000000000000000000 PUSH1 0x0 DUP3 ADD MSTORE POP JUMP JUMPDEST PUSH32 0x222C202200000000000000000000000000000000000000000000000000000000 PUSH1 0x0 DUP3 ADD MSTORE POP JUMP JUMPDEST PUSH32 0x227D7D0000000000000000000000000000000000000000000000000000000000 PUSH1 0x0 DUP3 ADD MSTORE POP JUMP JUMPDEST PUSH32 0x7B226E616D65223A202200000000000000000000000000000000000000000000 PUSH1 0x0 DUP3 ADD MSTORE POP JUMP JUMPDEST PUSH32 0x646174613A6170706C69636174696F6E2F6A736F6E3B6261736536342C000000 PUSH1 0x0 DUP3 ADD MSTORE POP JUMP JUMPDEST PUSH32 0x2C20226E616D65223A2022000000000000000000000000000000000000000000 PUSH1 0x0 DUP3 ADD MSTORE POP JUMP JUMPDEST PUSH32 0x222C2022616E696D6174696F6E5F75726C223A20220000000000000000000000 PUSH1 0x0 DUP3 ADD MSTORE POP JUMP JUMPDEST PUSH32 0x2F00000000000000000000000000000000000000000000000000000000000000 PUSH1 0x0 DUP3 ADD MSTORE POP JUMP JUMPDEST PUSH32 0x616E696D6174696F6E5F75726C223A2022000000000000000000000000000000 PUSH1 0x0 DUP3 ADD MSTORE POP JUMP JUMPDEST PUSH2 0x14DD DUP2 PUSH2 0x10E7 JUMP JUMPDEST DUP2 EQ PUSH2 0x14E8 JUMPI PUSH1 0x0 DUP1 REVERT JUMPDEST POP JUMP INVALID COINBASE TIMESTAMP NUMBER DIFFICULTY GASLIMIT CHAINID SELFBALANCE 0x48 0x49 0x4A 0x4B 0x4C 0x4D 0x4E 0x4F POP MLOAD MSTORE MSTORE8 SLOAD SSTORE JUMP JUMPI PC MSIZE GAS PUSH2 0x6263 PUSH5 0x6566676869 PUSH11 0x6B6C6D6E6F707172737475 PUSH23 0x7778797A303132333435363738392B2FA2646970667358 0x22 SLT KECCAK256 PUSH24 0x33EA54277118754DA6BBAC7B91E4A65A5F9586FFFDB46BDB 0xB7 DIFFICULTY 0xBE 0x28 0xD4 0xFB PUSH24 0x64736F6C6343000806003300000000000000000000000000 "},"methodIdentifiers":{"base64Encode(bytes)":"d5fb1b19","createMetadataEdition(string,string,string,string,uint256,uint256)":"df30dba0","createMetadataJSON(string,string,string,uint256,uint256)":"58464f30","encodeMetadataJSON(bytes)":"d01fde8c","numberToString(uint256)":"170dc660","tokenMediaData(string,string,uint256)":"eb111ab6"}}}}}